:020000040800F2
:100000009005002029020008131300080B130008B4
:100010000F130008210400088115000800000000EB
:10002000000000000000000000000000171300089E
:10003000250400080000000015130008191300082B
:100040004D0200084D0200084D0200084D02000854
:100050004D0200084D0200084D0200084D02000844
:100060004D0200084D0200084D0200084D02000834
:100070004D0200084D0200084D0200084D02000824
:100080004D0200084D0200084D0200084D02000814
:100090004D0200084D0200084D0200084D02000804
:1000A0004D0200084D0200084D0200084D020008F4
:1000B0004D0200084D0200084D0200084D020008E4
:1000C0004D0200084D0200084D0200084D020008D4
:1000D0004D020008711500084D0200084D0200088D
:1000E0004D0200084D0200084D0200084D020008B4
:1000F0004D0200084D0200084D0200084D020008A4
:100100004D0200084D0200084D0200084D02000893
:100110004D0200084D0200084D0200084D02000883
:100120004D0200084D0200084D0200084D02000873
:100130004D0200084D0200084D0200084D02000863
:100140004D0200084D0200084D0200084D02000853
:100150004D0200084D0200084D0200084D02000843
:100160004D0200084D0200084D0200084D02000833
:100170004D0200084D0200084D020008000000007A
:100180004D0200084D02000800F002F800F03CF8B3
:100190000AA090E8000C82448344AAF10107DA45E2
:1001A00001D100F031F8AFF2090EBAE80F0013F0F8
:1001B000010F18BFFB1A43F0010318476016000037
:1001C00080160000103A24BF78C878C1FAD85207C8
:1001D00024BF30C830C144BF04680C6070470000C1
:1001E0000023002400250026103A28BF78C1FBD840
:1001F000520728BF30C148BF0B6070471FB501F0E0
:10020000FBFA1FBD10B510BD00F0D7F81146FFF77F
:10021000F5FF01F053FA00F0F5F803B4FFF7F2FF31
:1002200003BC01F0CBF900000C48016841F47001F7
:1002300001600B4880470B480047FEE7FEE7FEE7FA
:10024000FEE7FEE7FEE7FEE7FEE7FEE7FEE700006B
:1002500005480649044A064B7047000088ED00E057
:10026000211300088901000890010020900500205A
:1002700090010020704753EA020C00F069802DE9DC
:10028000F04B4FF00006002B1FBFB3FA83F503FAC3
:1002900005F424FA05F65E4012BF1643B2FA82F561
:1002A00002FA05F4C5F120051EBF22FA05FC44EA56
:1002B0000C04203556EA044C4FEA144418BF641C61
:1002C0004FF000084FF00009904271EB030C39D356
:1002D000002919BFB1FA81F701FA07F6B0FA80F7E1
:1002E00000FA07F6C7F120071EBF20FA07FC46EA0E
:1002F0000C062037B6FBF4FCA7EB0507103F07F010
:100300001F0BCBF120060CFA0BFB2CFA06F644BFB0
:10031000B3460026202FA4BF5E464FF0000B5BEAD9
:10032000060C08BF4FF0010B19EB0B09ABFB027C6D
:1003300048EB0608C01B06FB02CC0BFB03CC71EBA1
:100340000C01C1E70B46024641464846BDE8F08B2A
:1003500013B54FF000004FF00001AFF30080BDE88F
:100360001C4070474FF0000200B513469446964675
:10037000203922BFA0E80C50A0E80C50B1F12001B8
:10038000BFF4F7AF090728BFA0E80C5048BF0CC066
:100390005DF804EB890028BF40F8042B08BF7047C4
:1003A00048BF20F8022B11F0804F18BF00F8012B36
:1003B00070477047704770477047754600F02CF8DB
:1003C000AE4605006946534620F00700854618B042
:1003D00020B5FFF73DFFBDE820404FF000064FF08D
:1003E00000074FF000084FF0000B21F00701AC466A
:1003F000ACE8C009ACE8C009ACE8C009ACE8C00989
:100400008D46704710B50446AFF300802046BDE826
:100410001040FFF702BF0000004870472C01002089
:1004200000BFFEE7704770B50446A56D00F06CF99B
:10043000064694F83500022808D08020606500BF89
:10044000002084F8340000BF012070BD20680068DF
:1004500020F01600216808602068406920F08000C4
:1004600021684861206C08B9A06C28B12068006838
:1004700020F00800216808602068006820F0010072
:100480002168086010E000F03FF9801B05280BD9B7
:1004900020206065032084F8350000BF002084F828
:1004A000340000BF0320D0E72068006800F001009E
:1004B0000028E8D194F85C103F208840A860012013
:1004C00084F8350000BF002084F8340000BF00BF6E
:1004D000BBE7014691F83500022803D0802048652B
:1004E00001207047052081F835000868006820F079
:1004F00001000A6810600020F3E70000F8B502462A
:100500000B460025002400200021D6E0012606FA33
:1005100001F51E6806EA0504AC4274D11E7906F0A6
:100520000306012E04D01E7906F00306022E13D115
:1005300090684F000326BE40B0434F00DE68BE40C7
:1005400030439060506801268E40B0431E79C6F358
:1005500000168E40304350601E7906F00306032ECD
:1005600009D0D0684F000326BE40B0434F009E68BC
:10057000BE403043D0601E7906F00306022E13D130
:10058000CF0802F1200656F827004E07F70E0F2677
:10059000BE40B0434F07FF0E1E69BE403043CF0838
:1005A00002F1200646F8270010684F000326BE40DF
:1005B000B0431E7906F003064F00BE403043106082
:1005C0005E6806F44036002E76D000BF0026009606
:1005D0003C4E366846F480463A4F3E603E463668AA
:1005E00006F48046009600BF00BF374E8F0856F8CD
:1005F00027008E07370F0F26BE40B043334EB2425E
:1006000002D1002624E057E0314EB24201D101264A
:100610001EE0304EB24201D1022619E02E4EB24207
:1006200001D1032614E02D4EB24201D104260FE081
:100630002B4EB24201D105260AE02A4EB24201D128
:10064000062605E0284EB24201D1072600E0082622
:100650008F073F0FBE4030431B4E8F0846F82700E0
:10066000224E3068A0435E6806F4801606B120432F
:100670001E4E3060361D3068A0435E6806F40016DA
:1006800006B12043194E361D3060184E361F3068B3
:10069000A0435E6806F4003606B12043134E361FB1
:1006A0003060361F3068A0435E6806F4803606B1BD
:1006B00020430E4E083E3060491C1029FFF426AF3F
:1006C000F8BD0000443802400838014000000240F4
:1006D0000004024000080240000C024000100240EA
:1006E0000014024000180240001C0240083C014077
:1006F0000AB1816101E00B04836170470148006821
:10070000000C7047002004E00148006870470000BA
:1007100000000020034800680349097808440149A3
:1007200008607047000000200800002010B50A484B
:10073000006840F40070084908600846006840F40A
:1007400080600860052000F06FF80F2000F006F8C8
:1007500000F02AF8002010BD003C024070B50446AD
:100760000E4800784FF47A71B1FBF0F00C4909683B
:10077000B1FBF0F5284600F0D3FB08B1012070BDB5
:10078000102C07D200222146501E00F00EF805481A
:10079000046001E00120F2E70020F0E708000020FB
:1007A000180000200400002070472DE9F05F80460B
:1007B0000D461646002700F0E5FE074639462A4654
:1007C000334601F00700C0F1070ABAF1040F02D95D
:1007D0004FF0040A01E0C0F1070AD14600F1040A13
:1007E000BAF1070F02D24FF0000A01E0A0F1030AAC
:1007F000D4464FF0010A0AFA09FAAAF1010A0AEAF4
:10080000020A0AFA0CFA4FF0010B0BFA0CFBABF1DF
:10081000010B0BEA030B4AEA0B042146404600F0A9
:10082000B9FEBDE8F09F000000BF00F00702064BD4
:1008300019684FF6FF031940044B0B4343EA0221AA
:10084000014B196000BF70470CED00E00000FA0595
:1008500070B504460D460CB9012070BD58480068BB
:1008600000F00700A84209D255490D7008460068FB
:1008700000F00700A84201D00120EEE7207800F048
:10088000020002281DD1207800F00400042805D1C0
:100890004C48006840F4E0504A490860207800F075
:1008A0000800082805D14748006840F460404549E1
:1008B00008604448006820F0F000A16808434149FE
:1008C0000860207800F00100A8B36068012807D113
:1008D0003C4808380068C0F34040B8B90120BCE784
:1008E0006068022802D06068032807D135480838BC
:1008F0000068C0F3406048B90120AEE731480838CD
:100900000068C0F3400008B90120A6E72D48006840
:1009100020F00300616808432A490860FFF7F4FEED
:10092000064609E0FFF7F0FE801B41F2883188425D
:1009300002D9032091E707E02248006800F00C008C
:100940006168B0EB810FEDD11D48006800F0070031
:10095000A84209D91A490D700846006800F007003E
:10096000A84201D0012078E7207800F00400042894
:1009700007D11448006820F4E050E16808431149A9
:100980000860207800F00800082808D10D480068A9
:1009900020F46040216940EAC1000A49086000F083
:1009A00019F808490968C1F30311074A515CC840A6
:1009B0000649086006480068FFF7D0FE00204CE7B3
:1009C000003C0240083802400218000818000020CD
:1009D000040000202DE9F047002400250026A14650
:1009E0002548006800F00C0020B1042805D0082834
:1009F0003AD105E0DFF8849039E0DFF8849036E002
:100A00001D48001F006800F03F041B48001F0068DD
:100A100000F4800078B11A481749091F0968C1F32A
:100A20008811A0FB01700146224600233846FFF7DB
:100A300022FC05460EE011480F49091F0968C1F361
:100A40008811A0FB01700146224600233846FFF7BB
:100A500012FC05460848001F0068C0F30140401C16
:100A60004600B5FBF6F902E0DFF8109000BF00BFCA
:100A70004846BDE8F0870000083802400024F40032
:100A800000127A00F8B504460CB90120F8BD2078B0
:100A900000F00100002874D0F948006800F00C0054
:100AA00004280DD0F648006800F00C00082813D187
:100AB000F348001F006800F48000B0F5800F0BD1F0
:100AC000EF4808380068C0F34040002859D06068FB
:100AD000002856D10120D9E700BF6068B0F5803FFB
:100AE00008D1E7480838006840F48030E449083904
:100AF00008601EE06068B0F5A02F0DD1E04808380E
:100B0000006840F48020DE49083908600846006823
:100B100040F4803008600CE0D9480838006820F4C0
:100B20008030D749083908600846006820F48020E2
:100B3000086000BF606890B1FFF7E6FD054606E07B
:100B4000FFF7E2FD401B642801D903209EE7CC4853
:100B500008380068C0F340400028F1D011E0FFF7EA
:100B6000D3FD054606E0FFF7CFFD401B642801D901
:100B700003208BE7C24808380068C0F340400028D3
:100B8000F1D1207800F0020002285FD1BC48006853
:100B900000F00C0058B1BA48006800F00C000828BA
:100BA0001CD1B748001F006800F48000B0B9B448F9
:100BB00008380068C0F3400020B1E068012801D087
:100BC000012063E7AE480838006820F0F80021698A
:100BD00040EAC100AA490839086037E0E06800B37C
:100BE0000120A8490860FFF78FFD054606E0FFF7E2
:100BF0008BFD401B022801D9032047E7A048083895
:100C00000068C0F340000028F1D09D480838006813
:100C100020F0F800216940EAC100994908390860CC
:100C200014E0002097490860FFF76EFD054606E0D6
:100C3000FFF76AFD401B022801D9032026E79048F0
:100C400008380068C0F340000028F1D1207800F097
:100C5000080008282CD16069A8B101208A490860E1
:100C6000FFF752FD054606E0FFF74EFD401B022848
:100C700001D903200AE782486C300068C0F34000C5
:100C80000028F1D014E000207F490860FFF73CFD08
:100C9000054606E0FFF738FD401B022801D9032076
:100CA000F4E677486C300068C0F340000028F1D1CA
:100CB000207800F00400042870D1002770483830F4
:100CC000006800F0805090B900BF002000906C4890
:100CD0003830006840F08050694938310860084673
:100CE000006800F08050009000BF00BF01276748F7
:100CF000006800F48070B0B96448006840F4807007
:100D000062490860FFF700FD054606E0FFF7FCFCBE
:100D1000401B022801D90320B8E65C48006800F4B3
:100D200080700028F2D000BFA068012808D1544884
:100D30006830006840F001005149683108601DE0EA
:100D4000A06805280DD14E486830006840F00400C6
:100D50004B49683108600846006840F001000860AF
:100D60000CE047486830006820F0010044496831D1
:100D700008600846006820F00400086000BFA06812
:100D8000A8B1FFF7C1FC054609E0FFF7BDFC401B19
:100D900041F28831884202D9032077E626E03848BC
:100DA00068300068C0F340000028EED013E0FFF781
:100DB000ABFC054608E0FFF7A7FC401B41F2883179
:100DC000884201D9032061E62D4868300068C0F3ED
:100DD00040000028EFD1012F07D1294838300068A2
:100DE00020F0805026493831086000BFA0690028F3
:100DF00045D02348006800F00C0008285DD0A069A9
:100E0000022845D100201F490866FFF77DFC0546F2
:100E100006E0FFF779FC401B022801D9032035E6E4
:100E2000174808380068C0F340600028F1D1D4E9C1
:100E300007010843616A40EA81110122A06AC2EBFE
:100E4000500041EA00412C20005D41EA00600C495D
:100E5000091F086001200B490866FFF755FC05468D
:100E600006E0FFF751FC401B022801D903200DE6E4
:100E7000034808380068C0F340600028F1D049E01A
:100E80000838024000004742800E47420070004090
:100E9000002021490866FFF737FC054606E0FFF70A
:100EA00033FC401B022801D90320EFE51B480068F2
:100EB000C0F340600028F2D12CE0A069012800D1E5
:100EC000E4E51648001D0668A069012820D006F454
:100ED0008001E06981421BD106F03F01206A814216
:100EE00016D147F6C0703040616AB0EB811F0FD158
:100EF00006F440310122A06AC2EB5000B1EB004F72
:100F000006D106F070612C20005DB1EB006F01D0BE
:100F10000120BBE50020B9E500004742003802404F
:100F200070B504462546681EB0F1807F01D30120CC
:100F30000FE0681E4FF0E02148610F214FF0FF30B5
:100F400000F028FB00204FF0E021886107200861B5
:100F5000002070BD704770472DE9F84F04462068A7
:100F600005682068C668206847694FF00009CA46CE
:100F700005F00F09B9F1000F0AD105F0200038B1D2
:100F800006F0200020B1204600F024FABDE8F88FDA
:100F9000B9F1000F7CD007F0010018B906F4907089
:100FA000002875D005F0010030B106F4807018B14A
:100FB000606C40F00100606405F0040030B107F09F
:100FC000010018B1606C40F00200606405F002009E
:100FD00030B107F0010018B1606C40F004006064AB
:100FE00005F0080048B106F0200010B907F0010034
:100FF00018B1606C40F008006064606C002846D056
:1010000005F0200028B106F0200010B1204600F0C5
:10101000E1F920684069C0F3801A606C00F00800B4
:1010200010B9BAF1000F2DD0204600F08DF92068DC
:10103000406900F04000402820D100BF00BF216877
:10104000143151E8001F21F040002168143141E8BB
:101050000002002AF3D100BFE06B50B17748E16B8A
:101060000865E06BFFF735FA88B1E06B016D8847E2
:101070000DE02046FFF76FFF09E009E02046FFF78B
:101080006AFF04E02046FFF766FF002060647DE70A
:10109000206B012878D105F01000002874D006F0EC
:1010A00010000028FAD000BF0020009020680068DF
:1010B000009020684068009000BF00BF2068406931
:1010C00000F04000402860D1E06B006840681FFAE3
:1010D00080F8B8F1000F56D0A08D404553DDA4F83C
:1010E0002E80E06BC069B0F5807F43D000BF00BFA9
:1010F00021680C3151E8001F21F4807021680C3107
:1011000041E80002002AF3D100BF00BF00BF216800
:10111000143151E8001F21F001002168143141E829
:101120000002002AF3D100BF00BF00BF21681431C4
:1011300051E8001F21F040002168143141E800020D
:10114000002AF3D100BF202084F842000020206351
:1011500000BF00BF21680C3151E8001F21F01000D2
:1011600021680C3141E80002002AF3D100BFE06B96
:10117000FFF759F902206063A08DE28D801A81B2D9
:101180002046FFF7E7FE01E742E0A08DE18D401A1F
:101190001FFA80F8E08DD0B3B8F1000F37D000BF50
:1011A00000BF21680C3151E8001F21F490702168C4
:1011B0000C3141E80002002AF3D100BF00BF00BF9C
:1011C0002168143151E8001F21F001002168143119
:1011D00041E80002002AF3D100BF202084F8420039
:1011E0000020206300BF00BF21680C3151E8001FC0
:1011F00021F0100021680C3141E80002002AF3D1EF
:1012000000BF0220606341462046FFF7A3FEBDE613
:1012100005F0800030B106F0800018B1204600F0E3
:1012200077F9B3E605F0400030B106F0400018B1A0
:10123000204600F0BFF8A9E600BFA7E63513000876
:1012400070B504460D46164694F8420020280BD18E
:1012500005B10EB9012070BD002020633246294639
:10126000204600F035F9F6E70220F4E710B5044611
:101270002049206888423BD11F48008800F4004084
:1012800088BB1D48008800F4804070B11B4800787E
:101290000A2803D000201849088024E01648008856
:1012A00040F40040144908801DE0144800780D28DF
:1012B00006D11148008840F480400F49088012E0B0
:1012C0000E4800780C490988C1F30D010C4A5054AE
:1012D00009480088401C0849088008460088C7283B
:1012E00001DD00200880012204490648FFF7A8FF1D
:1012F00010BD00000010014010000020120000206E
:101300001C000020E4000020704700BFFEE700BF83
:10131000FEE770477047704710B5FFF7FBF910BD47
:101320000348006840F470000149086070470000FD
:1013300088ED00E070B50546AC6B0020E085E084E8
:101340002046FFF708FE70BD00BF00BF02680C32E8
:1013500052E8002F22F4907102680C3242E8001328
:10136000002BF3D100BF00BF00BF0268143252E867
:10137000002F22F001010268143242E80013002B12
:10138000F3D100BF016B01290ED100BF00BF02687D
:101390000C3252E8002F22F0100102680C3242E8B1
:1013A0000013002BF3D100BF202180F84210002150
:1013B0000163704710B504462068C06820F0400003
:1013C0002168C860202084F841002046FFF79CFF78
:1013D000002010BDF8B5044694F84200222875D1CB
:1013E000A068B0F5805F0CD1206950B90025A66ACD
:1013F00020684068C0F308003080A06A801CA062AA
:1014000015E0A56A0026A068B0F5805F03D0A0684B
:1014100028B9206918B920684068287004E020685D
:10142000406800F07F002870A06A401CA062E08D38
:10143000401E80B2E085002846D12068C06820F0B8
:1014400020002168C8602068C06820F4807021688E
:10145000C8602068406920F00100216848612020B0
:1014600084F8420000206063206B012826D1002010
:10147000206300BF00BF21680C3151E8001F21F03C
:10148000100021680C3141E80002002AF3D100BFAE
:101490002068006800F0100010280AD100BF00206A
:1014A000009020680068009020684068009000BFAD
:1014B00000BFA18D2046FFF74DFD02E02046FFF75B
:1014C000D5FE0020F8BD01E00020FBE70220F9E78F
:1014D00010B5034699629A85DA8500205864222067
:1014E00083F84200186928B11868C06840F4807019
:1014F0001C68E0601868406940F001001C68606189
:101500001868C06840F020001C68E060002010BD32
:10151000014691F84100212828D18868B0F5805F04
:101520000BD1086948B90A6A1088C0F308000B6833
:101530005860086A801C086205E00B6A581C086243
:1015400018780B685860C88C401E80B2C88458B99F
:101550000868C06820F080000B68D8600868C06820
:1015600040F040000B68D860002070470220FCE784
:1015700010B50248FFF7F0FC10BD0000E4000020A9
:1015800000BFFEE702480068C0F302207047000079
:101590000CED00E010B5002804DB0A07130E054A25
:1015A000135406E00A07140E034A00F00F031B1F32
:1015B000D45410BD00E400E018ED00E000BF704717
:1015C00001490860704700001400002010B504466F
:1015D0004FF47A7104FB01F000F002F810BD000036
:1015E00070B5034600224FF0E02675690D4E36684F
:1015F00003FB06F44FF0E026B16910E04FF0E0265F
:10160000B06988420BD0884202D20E1A324402E0FE
:101610002E1A0E4432440146A24200D300E0EDE708
:1016200000BF70BD1400002000B587B000BF00BF30
:10163000002001901F48006840F010001D4908601C
:101640000846006800F01000019000BF00BF00BF16
:1016500000BF00BF002001900846006840F0100065
:1016600008600846006800F01000019000BF00BF4D
:1016700000BF01200290039004900220059002A96F
:101680000D48FEF73BFF0220029002A90A48FEF730
:1016900035FF00BF012211460748FFF729F800BFB8
:1016A00000BF012202210448FFF722F800BF07B063
:1016B00000BD00003038024000100240FFF736F84D
:1016C0000723022208214FF4A87000F027F8A82071
:1016D000FFF776FFFFF7A8FF1DE000224FF400712F
:1016E0000D48FFF705F8012291020B48FFF700F8BB
:1016F0004FF4FA70FFF76AFF012251020648FEF725
:10170000F7FF00224FF480610348FEF7F1FF4FF42A
:10171000FA70FFF75BFFE0E7001402402DE9F041AB
:1017200092B080460C4615461E460027302106A87A
:10173000FEF718FE142101A8FEF714FE00BF0020DA
:1017400000902A48006840F0805028490860084608
:10175000006800F08050009000BF00BF00BF002074
:1017600000902348006840F4804021490860084602
:10177000006800F48040009000BF00BF0120069088
:101780000004079002200C9041050D91CDF83C809B
:101790000E941095119606A8FFF774F907461FB12D
:1017A000012012B0BDE8F0810F20019002200290CC
:1017B000002003904FF4A05004904FF48050059007
:1017C000052101A8FFF744F807460FB10120E8E71B
:1017D000FEF794FF41F20101884205D105480068F7
:1017E00040F48070034908600020DAE74038024086
:1017F00000700040003C02404FF04070E1EE100AE3
:10180000704700000000000000000102030406070A
:101810000809000000000102030400003C18000851
:10182000000000201C000000C40100085818000837
:101830001C00002074050000E0010008000000000A
:101840001000000001000000000000000000000087
:08185000000000000024F40078
:040000050800018965
:00000001FF
